{
  "contractName": "Counter",
  "abi": [
    {
      "inputs": [],
      "name": "increment",
      "outputs": [],
      "stateMutability": "nonpayable",
      "type": "function"
    },
    {
      "inputs": [],
      "name": "decrement",
      "outputs": [],
      "stateMutability": "nonpayable",
      "type": "function"
    },
    {
      "inputs": [
        {
          "internalType": "uint8",
          "name": "num",
          "type": "uint8"
        }
      ],
      "name": "multiplication",
      "outputs": [],
      "stateMutability": "nonpayable",
      "type": "function"
    },
    {
      "inputs": [
        {
          "internalType": "uint8",
          "name": "num",
          "type": "uint8"
        }
      ],
      "name": "division",
      "outputs": [],
      "stateMutability": "nonpayable",
      "type": "function"
    },
    {
      "inputs": [],
      "name": "getNumber",
      "outputs": [
        {
          "internalType": "uint8",
          "name": "",
          "type": "uint8"
        }
      ],
      "stateMutability": "view",
      "type": "function",
      "constant": true
    }
  ],
  "bytecode": "0x608060405234801561000f575f80fd5b5061039c8061001d5f395ff3fe608060405234801561000f575f80fd5b5060043610610055575f3560e01c806324717097146100595780632baeceb7146100755780637996ad6b1461007f578063d09de08a1461009b578063f2c9ecd8146100a5575b5f80fd5b610073600480360381019061006e91906101e5565b6100c3565b005b61007d6100f6565b005b610099600480360381019061009491906101e5565b61012d565b005b6100a3610160565b005b6100ad610197565b6040516100ba919061021f565b60405180910390f35b805f8054906101000a900460ff166100db9190610265565b5f806101000a81548160ff021916908360ff16021790555050565b60015f808282829054906101000a900460ff1661011391906102a1565b92506101000a81548160ff021916908360ff160217905550565b805f8054906101000a900460ff166101459190610302565b5f806101000a81548160ff021916908360ff16021790555050565b60015f808282829054906101000a900460ff1661017d9190610332565b92506101000a81548160ff021916908360ff160217905550565b5f805f9054906101000a900460ff16905090565b5f80fd5b5f60ff82169050919050565b6101c4816101af565b81146101ce575f80fd5b50565b5f813590506101df816101bb565b92915050565b5f602082840312156101fa576101f96101ab565b5b5f610207848285016101d1565b91505092915050565b610219816101af565b82525050565b5f6020820190506102325f830184610210565b92915050565b7f4e487b71000000000000000000000000000000000000000000000000000000005f52601160045260245ffd5b5f61026f826101af565b915061027a836101af565b9250828202610288816101af565b915080821461029a57610299610238565b5b5092915050565b5f6102ab826101af565b91506102b6836101af565b9250828203905060ff8111156102cf576102ce610238565b5b92915050565b7f4e487b71000000000000000000000000000000000000000000000000000000005f52601260045260245ffd5b5f61030c826101af565b9150610317836101af565b925082610327576103266102d5565b5b828204905092915050565b5f61033c826101af565b9150610347836101af565b9250828201905060ff8111156103605761035f610238565b5b9291505056fea2646970667358221220c110ed07cab8846b3fb257c864c0b49905b3a4389c8111ab02ad1be5ca8a0c5464736f6c63430008140033",
  "immutableReferences": {},
  "source": "//SPDX-License-Identifier:MIT\npragma solidity ^0.8.2;\n\ncontract Counter {\n    uint8 number;\n\n    function increment() public {\n        number += 1;\n    }\n\n    function decrement() public {\n        number -= 1;\n    }\n\n    function multiplication(uint8 num) public {\n        number = number * num;\n    }\n\n    function division(uint8 num) public {\n        number = number / num;\n    }\n\n    function getNumber() public view returns (uint8) {\n        return number;\n    }\n}\n",
  "sourcePath": "/home/lemon/Documents/Continuum/counter/contracts/Counter.sol",
  "compiler": {
    "name": "solc",
    "version": "0.8.20+commit.a1b79de6.Emscripten.clang"
  },
  "schemaVersion": "3.4.14",
  "updatedAt": "2023-06-03T16:18:06.977Z",
  "networkType": "ethereum",
  "devdoc": {
    "kind": "dev",
    "methods": {},
    "version": 1
  },
  "userdoc": {
    "kind": "user",
    "methods": {},
    "version": 1
  }
}