{
  "contractName": "Counter",
  "abi": [
    {
      "inputs": [],
      "name": "increment",
      "outputs": [],
      "stateMutability": "nonpayable",
      "type": "function"
    },
    {
      "inputs": [],
      "name": "decrement",
      "outputs": [],
      "stateMutability": "nonpayable",
      "type": "function"
    },
    {
      "inputs": [],
      "name": "getNumber",
      "outputs": [
        {
          "internalType": "uint8",
          "name": "",
          "type": "uint8"
        }
      ],
      "stateMutability": "view",
      "type": "function",
      "constant": true
    }
  ],
  "bytecode": "0x608060405234801561000f575f80fd5b506101f68061001d5f395ff3fe608060405234801561000f575f80fd5b506004361061003f575f3560e01c80632baeceb714610043578063d09de08a1461004d578063f2c9ecd814610057575b5f80fd5b61004b610075565b005b6100556100ac565b005b61005f6100e3565b60405161006c9190610112565b60405180910390f35b60015f808282829054906101000a900460ff166100929190610158565b92506101000a81548160ff021916908360ff160217905550565b60015f808282829054906101000a900460ff166100c9919061018c565b92506101000a81548160ff021916908360ff160217905550565b5f805f9054906101000a900460ff16905090565b5f60ff82169050919050565b61010c816100f7565b82525050565b5f6020820190506101255f830184610103565b92915050565b7f4e487b71000000000000000000000000000000000000000000000000000000005f52601160045260245ffd5b5f610162826100f7565b915061016d836100f7565b9250828203905060ff8111156101865761018561012b565b5b92915050565b5f610196826100f7565b91506101a1836100f7565b9250828201905060ff8111156101ba576101b961012b565b5b9291505056fea264697066735822122051e85ffb71fd729da1181ea07d29b775554de77f15594ffaeb2c38780721cfaf64736f6c63430008140033",
  "immutableReferences": {},
  "source": "//SPDX-License-Identifier:MIT\npragma solidity ^0.8.2;\n\ncontract Counter {\n    uint8 number;\n\n    function increment() public {\n        number += 1;\n    }\n\n    function decrement() public {\n        number -= 1;\n    }\n\n    function getNumber() public view returns (uint8) {\n        return number;\n    }\n}\n",
  "sourcePath": "/home/lemon/Documents/Continuum/counter/contracts/Counter.sol",
  "compiler": {
    "name": "solc",
    "version": "0.8.20+commit.a1b79de6.Emscripten.clang"
  },
  "schemaVersion": "3.4.14",
  "updatedAt": "2023-06-03T15:14:38.382Z",
  "networkType": "ethereum",
  "devdoc": {
    "kind": "dev",
    "methods": {},
    "version": 1
  },
  "userdoc": {
    "kind": "user",
    "methods": {},
    "version": 1
  }
}